{"abi":[{"type":"constructor","inputs":[{"name":"tokenAddress","type":"address","internalType":"address"}],"stateMutability":"nonpayable"},{"type":"function","name":"claimGoal","inputs":[{"name":"goalId","type":"uint256","internalType":"uint256"}],"outputs":[],"stateMutability":"nonpayable"},{"type":"function","name":"goalClaimed","inputs":[{"name":"","type":"address","internalType":"address"},{"name":"","type":"uint256","internalType":"uint256"}],"outputs":[{"name":"","type":"bool","internalType":"bool"}],"stateMutability":"view"},{"type":"function","name":"goalRewards","inputs":[{"name":"","type":"uint256","internalType":"uint256"}],"outputs":[{"name":"","type":"uint256","internalType":"uint256"}],"stateMutability":"view"},{"type":"function","name":"token","inputs":[],"outputs":[{"name":"","type":"address","internalType":"contract IERC20"}],"stateMutability":"view"}],"bytecode":{"object":"0x608060405234801561000f575f5ffd5b506040516109d43803806109d4833981810160405281019061003191906101cc565b805f5f6101000a81548173ffffffffffffffffffffffffffffffffffffffff021916908373ffffffffffffffffffffffffffffffffffffffff160217905550606460015f600181526020019081526020015f208190555060c860015f600281526020019081526020015f208190555061019060015f600381526020019081526020015f208190555061032060015f600481526020019081526020015f20819055506104b060015f600581526020019081526020015f208190555061096060015f600681526020019081526020015f20819055506112c060015f600781526020019081526020015f208190555061258060015f600881526020019081526020015f2081905550614b0060015f600981526020019081526020015f208190555061960060015f600a81526020019081526020015f2081905550506101f7565b5f5ffd5b5f73ffffffffffffffffffffffffffffffffffffffff82169050919050565b5f61019b82610172565b9050919050565b6101ab81610191565b81146101b5575f5ffd5b50565b5f815190506101c6816101a2565b92915050565b5f602082840312156101e1576101e061016e565b5b5f6101ee848285016101b8565b91505092915050565b6107d0806102045f395ff3fe608060405234801561000f575f5ffd5b506004361061004a575f3560e01c80630c62c27a1461004e57806314b6a9ea1461007e578063d4e54ab31461009a578063fc0c546a146100ca575b5f5ffd5b610068600480360381019061006391906103c7565b6100e8565b6040516100759190610401565b60405180910390f35b610098600480360381019061009391906103c7565b6100fd565b005b6100b460048036038101906100af9190610474565b610342565b6040516100c191906104cc565b60405180910390f35b6100d261036c565b6040516100df9190610540565b60405180910390f35b6001602052805f5260405f205f915090505481565b60025f3373ffffffffffffffffffffffffffffffffffffffff1673ffffffffffffffffffffffffffffffffffffffff1681526020019081526020015f205f8281526020019081526020015f205f9054906101000a900460ff1615610196576040517f08c379a000000000000000000000000000000000000000000000000000000000815260040161018d906105b3565b60405180910390fd5b5f60015f8381526020019081526020015f205490505f81116101ed576040517f08c379a00000000000000000000000000000000000000000000000000000000081526004016101e49061061b565b60405180910390fd5b600160025f3373ffffffffffffffffffffffffffffffffffffffff1673ffffffffffffffffffffffffffffffffffffffff1681526020019081526020015f205f8481526020019081526020015f205f6101000a81548160ff0219169083151502179055505f5f9054906101000a900473ffffffffffffffffffffffffffffffffffffffff1673ffffffffffffffffffffffffffffffffffffffff1663a9059cbb33670de0b6b3a7640000846102a29190610666565b6040518363ffffffff1660e01b81526004016102bf9291906106b6565b6020604051808303815f875af11580156102db573d5f5f3e3d5ffd5b505050506040513d601f19601f820116820180604052508101906102ff9190610707565b61033e576040517f08c379a00000000000000000000000000000000000000000000000000000000081526004016103359061077c565b60405180910390fd5b5050565b6002602052815f5260405f20602052805f5260405f205f915091509054906101000a900460ff1681565b5f5f9054906101000a900473ffffffffffffffffffffffffffffffffffffffff1681565b5f5ffd5b5f819050919050565b6103a681610394565b81146103b0575f5ffd5b50565b5f813590506103c18161039d565b92915050565b5f602082840312156103dc576103db610390565b5b5f6103e9848285016103b3565b91505092915050565b6103fb81610394565b82525050565b5f6020820190506104145f8301846103f2565b92915050565b5f73ffffffffffffffffffffffffffffffffffffffff82169050919050565b5f6104438261041a565b9050919050565b61045381610439565b811461045d575f5ffd5b50565b5f8135905061046e8161044a565b92915050565b5f5f6040838503121561048a57610489610390565b5b5f61049785828601610460565b92505060206104a8858286016103b3565b9150509250929050565b5f8115159050919050565b6104c6816104b2565b82525050565b5f6020820190506104df5f8301846104bd565b92915050565b5f819050919050565b5f6105086105036104fe8461041a565b6104e5565b61041a565b9050919050565b5f610519826104ee565b9050919050565b5f61052a8261050f565b9050919050565b61053a81610520565b82525050565b5f6020820190506105535f830184610531565b92915050565b5f82825260208201905092915050565b7f416c726561647920636c61696d656400000000000000000000000000000000005f82015250565b5f61059d600f83610559565b91506105a882610569565b602082019050919050565b5f6020820190508181035f8301526105ca81610591565b9050919050565b7f496e76616c696420676f616c00000000000000000000000000000000000000005f82015250565b5f610605600c83610559565b9150610610826105d1565b602082019050919050565b5f6020820190508181035f830152610632816105f9565b9050919050565b7f4e487b71000000000000000000000000000000000000000000000000000000005f52601160045260245ffd5b5f61067082610394565b915061067b83610394565b925082820261068981610394565b915082820484148315176106a05761069f610639565b5b5092915050565b6106b081610439565b82525050565b5f6040820190506106c95f8301856106a7565b6106d660208301846103f2565b9392505050565b6106e6816104b2565b81146106f0575f5ffd5b50565b5f81519050610701816106dd565b92915050565b5f6020828403121561071c5761071b610390565b5b5f610729848285016106f3565b91505092915050565b7f526577617264207472616e73666572206661696c6564000000000000000000005f82015250565b5f610766601683610559565b915061077182610732565b602082019050919050565b5f6020820190508181035f8301526107938161075a565b905091905056fea2646970667358221220ef745fa68a4f5d4a12a8084bc9002784e0d38ff72926253254f940c3829f364164736f6c634300081e0033","linkReferences":{}},"methodIdentifiers":{"claimGoal(uint256)":"14b6a9ea","goalClaimed(address,uint256)":"d4e54ab3","goalRewards(uint256)":"0c62c27a","token()":"fc0c546a"},"id":22}